:080000000200FE12020480FE62
:10000B0002018A050BE50B7002050AD39407E50A7A
:10001B00648094804005E4F50AF50BEFFD7C0070DD
:10002B0054E50B450A70028058E50B6401450A70D4
:10003B00030200F5E50B6402450A70030200E4E5D8
:10004B000B6403450A70030200D6E50B6404450AF2
:10005B0070028066E50B6405450A7002804EE50B65
:10006B006406450A70028036E50B6407450A600397
:10007B000200FD8018ED64014C7077E50B450A70AA
:10008B0004C294800AE50B6401450A7009D294C23C
:10009B0095C296D29722E50B6402450A7006D2945C
:1000AB00C295801AE50B6403450A7006D294D2956B
:1000BB00800CE50B6404450A7009C294D295C29674
:1000CB00C29722E50B6405450A7006C294D295804F
:1000DB000CE50B6406450A7009C294C295D296C210
:1000EB009722E50B6407450A7008C294C295D29615
:1000FB00D29722787FE4F6D8FD75810B0201450279
:10010B000003E493A3F8E493A34003F68001F20801
:10011B00DFF48029E493A3F85407240CC8C333C439
:10012B00540F4420C8834004F456800146F6DFE4A4
:10013B00800B0102040810204080900216E47E011F
:10014B009360BCA3FF543F30E509541FFEE493A317
:10015B0060010ECF54C025E060A840B8E493A3FA29
:10016B00E493A3F8E493A3C8C582C8CAC583CAF0B5
:10017B00A3C8C582C8CAC583CADFE9DEE780BEC093
:10018B00E0C0F0C083C082C0D075D000C000C001F9
:10019B00C002C003C004C005C006C007758A7875CD
:1001AB008CEC0509E50970020508D39401E5086498
:1001BB008094804010E4FF1201EB7F0112000E755A
:1001CB000800750900D007D006D005D004D003D0A5
:1001DB0002D001D000D0D0D082D083D0F0D0E0328A
:1001EB00EFFD7C007005D2A0B2A122ED64014C7032
:1001FB0005C2A0B2A122C2A122758901758A7875A8
:10020B008CECC28DD28CD2A9D2AF22020800000294
:04021B000A000000D5
:00000001FF
