:030000000204AB4C
:10000B0002069EE517240BF8E60517227808300741
:10001B0002780BE475F00112047502041D2000EB4D
:10002B007F2ED2008018EF540F2490D43440D4FF8D
:10003B0030040BEF24BFB41A0050032461FFE51802
:10004B0060021518051BE51B7002051A30070D78A9
:10005B0008E475F001120475EF02046302063A74AA
:10006B0003D2078003E4C207F5178B088A09890AB4
:10007B00E4F518F51AF51BE51860077F2012004907
:10008B0080F57519FFC201C200C202C203C205C2CC
:10009B0006C208120017FF700D3007057F00120013
:1000AB005AAF1BAE1A22B4255FC2D5C20412001779
:1000BB00FF24D0B40A00501A75F00A781830D50511
:1000CB0008B6FF0106C6A426F620D5047002D2039B
:1000DB0080D924CFB41A00EF5004C2E5D204020237
:1000EB005AD20180C6D20080C0D20280BCD2D58049
:1000FB00BAD20580B47F201200492002077401B5E3
:10010B00180040F112000EFF120049020082D208C3
:10011B00D206809512000EFB12000EFA12000EF999
:10012B004A4B7006792B7A037BFF20022EE5186071
:10013B002A7E008E8275830012043660060EEE65F1
:10014B001970F0C2D5EBC0E0EAC0E0E9C0E0EE12F6
:10015B0002A1D0E0F9D0E0FAD0E0FB12041DFF6061
:10016B00AAEBC0E0EAC0E0E9C0E0120049D0E0240D
:10017B0001F9D0E03400FAD0E0FBE5190460DCD5DE
:10018B0019D980877BFF7A02799DD202809C7910E6
:10019B0080027908C206C2088008D2D5790A800489
:1001AB00790AC2D5E519047002F519E4FAFDFEFFD0
:1001BB0012000EFC7B0820011312000EFD7B103089
:1001CB00000A12000EFE12000EFF7B20EC3382D5CC
:1001DB0092D55013C3E43000069FFFE49EFEE4204B
:1001EB0001039DFDE49CFCE4CBF8C201EC700CCF49
:1001FB00CECDCCE824F8F870F38017C3EF33FFEEC5
:10020B0033FEED33FDEC33FCEB33FB994002FB0F7C
:10021B00D8E9EB300105F8D0E0C448B201C0E00AE0
:10022B00EC4D4E4F78207B0070C2EAB5190040BCF4
:10023B00C0E01202A3D0F0D0E0200104C4C0E0C49F
:10024B00B201C0F0120032D0F0D5F0EB02008212F6
:10025B000485011F5301995800F04C00EC42019D9D
:10026B004F01A54401A54901054301AB55018F463B
:10027B00018F45018F47034B5000F42D00F82E01E1
:10028B001B2B00FC2301192003342A00B448000067
:10029B0001133F3F3F00790AA2D520031430050913
:1002AB00B910020404B9080104A2D52006025001BA
:1002BB00042002689202B518005034C0E07F203051
:1002CB0003197F30A20272067205500F1202FAC296
:1002DB0002C206C205C2087F30800F300503E9C099
:1002EB00E0120049300503D0E0F9D0E0B518CC306E
:1002FB0005177F30B9100C1200497F583004077F67
:10030B00788003B908031200493002057F2D0200E3
:10031B00497F202008F87F2B2006F322920280CF02
:10032B00286E756C6C2900D20112000E3001F8C2D8
:10033B0001781830D50108F60200B42D5043495806
:10034B0012000E2403B405004001E49003469312FF
:10035B00003A743A12003AD203751804020199203C
:10036B00A535E5254524702F0523E52370020522CD
:10037B00D39402E52264809480500302041C30A5C0
:10038B000302041CE5254524600302041C0567E5F4
:10039B006770310566802D20A62FE5254524702931
:1003AB000523E52370020522D39402E52264809491
:1003BB0080405E20A65BE52545247055E5671567F3
:1003CB0070021566752400802B20A72CE52545248B
:1003DB0070260523E52370020522D39402E52264DF
:1003EB00809480402C20A729E52545247023F566B1
:1003FB00F567F5247525012230A51630A61330A715
:10040B0010E525640145247008F522F523F524F544
:10041B002522BB010689828A83E0225002E722BB98
:10042B00FE02E32289828A83E49322BB010CE582DC
:10043B0029F582E5833AF583E0225006E92582F817
:10044B00E622BBFE06E92582F8E222E58229F58247
:10045B00E5833AF583E49322BB010689828A83F014
:10046B00225002F722BBFE01F322FAE6FB0808E654
:10047B00F925F0F618E6CA3AF622D083D082F8E4D2
:10048B00937012740193700DA3A393F8740193F5F9
:10049B00828883E4737402936860EFA3A3A380DF65
:1004AB00787FE4F6D8FD7581670204F2020587E4D4
:1004BB0093A3F8E493A34003F68001F208DFF480E2
:1004CB0029E493A3F85407240CC8C333C4540F4432
:1004DB0020C8834004F456800146F6DFE4800B010C
:1004EB0002040810204080900537E47E019360BC25
:1004FB00A3FF543F30E509541FFEE493A360010EA4
:10050B00CF54C025E060A840B8E493A3FAE493A3CA
:10051B00F8E493A3C8C582C8CAC583CAF0A3C8C5EB
:10052B0082C8CAC583CADFE9DEE780BE2040260049
:10053B0000000000000000000000000000000000B0
:10054B0000000000000000000000000000000000A0
:10055B000000000000000000000000000000000090
:10056B00000000000000000000000000000000027E
:10057B006600000222000002240000001206611235
:10058B00068C750BFF750C06750DC47B007A007914
:10059B002612006A7B007A007926E4FDFF12061210
:1005AB00750BFF750C06750DD585660E85670F7B74
:1005BB00007A00794612006A7B007A0079467D0149
:1005CB00E4FF12061280D9C2A18F807F017E001238
:1005DB0005E3D2A27F057E00D3EF9400EE9400409A
:1005EB00257DC7EDD394007480948040127C01EC80
:1005FB00D394007480948040031C80F31D80E4EF3F
:10060B001F70D51E80D2228B088A09890A12067A9E
:10061B00AB08AA09A90A12041D6013050AE50A70A2
:10062B0002050914F912041DFF1206BA80E222EF2B
:10063B00B40A07740D120645740A309811A899B8BC
:10064B00130CC2983098FDA899C298B811F630993E
:10065B00FDC299F599227F381206B07F0C1206B0B5
:10066B007F061206B07F011206B07F800206B0ED46
:10067B007004AB078004EF2440FBEB4480FF0206C1
:10068B00B0758901758A78758CECC28DD28CD2A924
:10069B00D2AF22C0E0C0D0758A78758CEC12036A99
:1006AB00D0D0D0E032C2A2C2A01205D2C2A222C2C6
:1006BB00A2D2A01205D2C2A2226669727374206400
:1006CB006973706C61792020200064697374616EAA
:0C06DB0063653A253264202020202000B6
:00000001FF
